{"abi":[{"type":"constructor","inputs":[],"stateMutability":"nonpayable"},{"type":"function","name":"ASP_ROLE","inputs":[],"outputs":[{"name":"","type":"bytes32","internalType":"bytes32"}],"stateMutability":"view"},{"type":"function","name":"DEFAULT_ADMIN_ROLE","inputs":[],"outputs":[{"name":"","type":"bytes32","internalType":"bytes32"}],"stateMutability":"view"},{"type":"function","name":"getRoleAdmin","inputs":[{"name":"role","type":"bytes32","internalType":"bytes32"}],"outputs":[{"name":"","type":"bytes32","internalType":"bytes32"}],"stateMutability":"view"},{"type":"function","name":"grantRole","inputs":[{"name":"role","type":"bytes32","internalType":"bytes32"},{"name":"account","type":"address","internalType":"address"}],"outputs":[],"stateMutability":"nonpayable"},{"type":"function","name":"hasRole","inputs":[{"name":"role","type":"bytes32","internalType":"bytes32"},{"name":"account","type":"address","internalType":"address"}],"outputs":[{"name":"","type":"bool","internalType":"bool"}],"stateMutability":"view"},{"type":"function","name":"isPublished","inputs":[{"name":"merkleRoot","type":"bytes32","internalType":"bytes32"},{"name":"subMerkleRoot","type":"bytes32","internalType":"bytes32"}],"outputs":[{"name":"","type":"bool","internalType":"bool"}],"stateMutability":"view"},{"type":"function","name":"publishMerkleRoot","inputs":[{"name":"merkleRoot","type":"bytes32","internalType":"bytes32"}],"outputs":[],"stateMutability":"nonpayable"},{"type":"function","name":"publishSubMerkleRoot","inputs":[{"name":"merkleRoot","type":"bytes32","internalType":"bytes32"},{"name":"subMerkleRoot","type":"bytes32","internalType":"bytes32"}],"outputs":[],"stateMutability":"nonpayable"},{"type":"function","name":"renounceRole","inputs":[{"name":"role","type":"bytes32","internalType":"bytes32"},{"name":"callerConfirmation","type":"address","internalType":"address"}],"outputs":[],"stateMutability":"nonpayable"},{"type":"function","name":"revokeRole","inputs":[{"name":"role","type":"bytes32","internalType":"bytes32"},{"name":"account","type":"address","internalType":"address"}],"outputs":[],"stateMutability":"nonpayable"},{"type":"function","name":"supportsInterface","inputs":[{"name":"interfaceId","type":"bytes4","internalType":"bytes4"}],"outputs":[{"name":"","type":"bool","internalType":"bool"}],"stateMutability":"view"},{"type":"event","name":"MerkleRootPublished","inputs":[{"name":"merkleRoot","type":"bytes32","indexed":false,"internalType":"bytes32"}],"anonymous":false},{"type":"event","name":"RoleAdminChanged","inputs":[{"name":"role","type":"bytes32","indexed":true,"internalType":"bytes32"},{"name":"previousAdminRole","type":"bytes32","indexed":true,"internalType":"bytes32"},{"name":"newAdminRole","type":"bytes32","indexed":true,"internalType":"bytes32"}],"anonymous":false},{"type":"event","name":"RoleGranted","inputs":[{"name":"role","type":"bytes32","indexed":true,"internalType":"bytes32"},{"name":"account","type":"address","indexed":true,"internalType":"address"},{"name":"sender","type":"address","indexed":true,"internalType":"address"}],"anonymous":false},{"type":"event","name":"RoleRevoked","inputs":[{"name":"role","type":"bytes32","indexed":true,"internalType":"bytes32"},{"name":"account","type":"address","indexed":true,"internalType":"address"},{"name":"sender","type":"address","indexed":true,"internalType":"address"}],"anonymous":false},{"type":"event","name":"SubMerkleRootPublished","inputs":[{"name":"merkleRoot","type":"bytes32","indexed":false,"internalType":"bytes32"},{"name":"subMerkleRoot","type":"bytes32","indexed":false,"internalType":"bytes32"}],"anonymous":false},{"type":"error","name":"AccessControlBadConfirmation","inputs":[]},{"type":"error","name":"AccessControlUnauthorizedAccount","inputs":[{"name":"account","type":"address","internalType":"address"},{"name":"neededRole","type":"bytes32","internalType":"bytes32"}]},{"type":"error","name":"MerkleRootNotFound","inputs":[]}],"bytecode":{"object":"0x608060405234801561001057600080fd5b5061001c60003361004d565b506100477f60ddeeedcc0ad0194a5daeab83d1463588b03aca86cbee9384a9d5d1e673c2e23361004d565b506100f9565b6000828152602081815260408083206001600160a01b038516845290915281205460ff166100ef576000838152602081815260408083206001600160a01b03861684529091529020805460ff191660011790556100a73390565b6001600160a01b0316826001600160a01b0316847f2f8788117e7eff1d82e926ec794901d17c78024a50270940304540a733656f0d60405160405180910390a45060016100f3565b5060005b92915050565b610630806101086000396000f3fe608060405234801561001057600080fd5b50600436106100a95760003560e01c806372b962ea1161007157806372b962ea1461014257806391d1485414610155578063a217fddf14610168578063d547741f14610170578063ef4688f814610183578063f7285da7146101aa57600080fd5b806301ffc9a7146100ae5780631d615ab1146100d6578063248a9ca3146100eb5780632f2ff15d1461011c57806336568abe1461012f575b600080fd5b6100c16100bc366004610559565b6101bd565b60405190151581526020015b60405180910390f35b6100e96100e4366004610583565b6101f4565b005b61010e6100f9366004610583565b60009081526020819052604090206001015490565b6040519081526020016100cd565b6100e961012a36600461059c565b610270565b6100e961013d36600461059c565b61029b565b6100e96101503660046105d8565b6102d3565b6100c161016336600461059c565b61038d565b61010e600081565b6100e961017e36600461059c565b6103b6565b61010e7f60ddeeedcc0ad0194a5daeab83d1463588b03aca86cbee9384a9d5d1e673c2e281565b6100c16101b83660046105d8565b6103db565b60006001600160e01b03198216637965db0b60e01b14806101ee57506301ffc9a760e01b6001600160e01b03198316145b92915050565b7f60ddeeedcc0ad0194a5daeab83d1463588b03aca86cbee9384a9d5d1e673c2e261021e8161040e565b600082815260016020818152604092839020805460ff191690921790915590518381527f3efc50f485df4539db4524397b867a155bec01e125e79653c4617f33b856367a910160405180910390a15050565b60008281526020819052604090206001015461028b8161040e565b610295838361041b565b50505050565b6001600160a01b03811633146102c45760405163334bd91960e11b815260040160405180910390fd5b6102ce82826104ad565b505050565b7f60ddeeedcc0ad0194a5daeab83d1463588b03aca86cbee9384a9d5d1e673c2e26102fd8161040e565b60008381526001602052604090205460ff1661032c57604051635d91567160e01b815260040160405180910390fd5b60008281526002602052604090819020805460ff19166001179055517f1cbc1b4868cc269179063f846af2a66d5113a8aa12de6c4b478e00b7e7f4f410906103809085908590918252602082015260400190565b60405180910390a1505050565b6000918252602082815260408084206001600160a01b0393909316845291905290205460ff1690565b6000828152602081905260409020600101546103d18161040e565b61029583836104ad565b60008281526001602052604081205460ff168015610407575060008281526002602052604090205460ff165b9392505050565b6104188133610518565b50565b6000610427838361038d565b6104a5576000838152602081815260408083206001600160a01b03861684529091529020805460ff1916600117905561045d3390565b6001600160a01b0316826001600160a01b0316847f2f8788117e7eff1d82e926ec794901d17c78024a50270940304540a733656f0d60405160405180910390a45060016101ee565b5060006101ee565b60006104b9838361038d565b156104a5576000838152602081815260408083206001600160a01b0386168085529252808320805460ff1916905551339286917ff6391f5c32d9c69d2a47ea670b442974b53935d1edc7fd64eb21e047a839171b9190a45060016101ee565b610522828261038d565b6105555760405163e2517d3f60e01b81526001600160a01b03821660048201526024810183905260440160405180910390fd5b5050565b60006020828403121561056b57600080fd5b81356001600160e01b03198116811461040757600080fd5b60006020828403121561059557600080fd5b5035919050565b600080604083850312156105af57600080fd5b8235915060208301356001600160a01b03811681146105cd57600080fd5b809150509250929050565b600080604083850312156105eb57600080fd5b5050803592602090910135915056fea2646970667358221220b08a47fbc4580c444fdb2037ddfe716700f370a8af725c846dc3511095a0def064736f6c63430008140033","linkReferences":{}},"methodIdentifiers":{"ASP_ROLE()":"ef4688f8","DEFAULT_ADMIN_ROLE()":"a217fddf","getRoleAdmin(bytes32)":"248a9ca3","grantRole(bytes32,address)":"2f2ff15d","hasRole(bytes32,address)":"91d14854","isPublished(bytes32,bytes32)":"f7285da7","publishMerkleRoot(bytes32)":"1d615ab1","publishSubMerkleRoot(bytes32,bytes32)":"72b962ea","renounceRole(bytes32,address)":"36568abe","revokeRole(bytes32,address)":"d547741f","supportsInterface(bytes4)":"01ffc9a7"},"id":0}