{"abi":[{"type":"constructor","inputs":[],"stateMutability":"nonpayable"},{"type":"function","name":"AAVE","inputs":[],"outputs":[{"name":"","type":"bytes32","internalType":"bytes32"}],"stateMutability":"view"},{"type":"function","name":"DEFAULT_ADMIN_ROLE","inputs":[],"outputs":[{"name":"","type":"bytes32","internalType":"bytes32"}],"stateMutability":"view"},{"type":"function","name":"ETH_ADDRESS","inputs":[],"outputs":[{"name":"","type":"address","internalType":"address"}],"stateMutability":"view"},{"type":"function","name":"OPERATOR_ROLE","inputs":[],"outputs":[{"name":"","type":"bytes32","internalType":"bytes32"}],"stateMutability":"view"},{"type":"function","name":"PROTOCOL","inputs":[],"outputs":[{"name":"","type":"bytes32","internalType":"bytes32"}],"stateMutability":"view"},{"type":"function","name":"asp","inputs":[],"outputs":[{"name":"","type":"address","internalType":"contract IASP"}],"stateMutability":"view"},{"type":"function","name":"deposit","inputs":[{"name":"asset","type":"address","internalType":"address"},{"name":"amount","type":"uint256","internalType":"uint256"},{"name":"commitment","type":"bytes32","internalType":"bytes32"}],"outputs":[],"stateMutability":"payable"},{"type":"function","name":"getAaveTokenBalance","inputs":[{"name":"asset","type":"address","internalType":"address"}],"outputs":[{"name":"","type":"uint256","internalType":"uint256"}],"stateMutability":"view"},{"type":"function","name":"getRoleAdmin","inputs":[{"name":"role","type":"bytes32","internalType":"bytes32"}],"outputs":[{"name":"","type":"bytes32","internalType":"bytes32"}],"stateMutability":"view"},{"type":"function","name":"grantRole","inputs":[{"name":"role","type":"bytes32","internalType":"bytes32"},{"name":"account","type":"address","internalType":"address"}],"outputs":[],"stateMutability":"nonpayable"},{"type":"function","name":"hasRole","inputs":[{"name":"role","type":"bytes32","internalType":"bytes32"},{"name":"account","type":"address","internalType":"address"}],"outputs":[{"name":"","type":"bool","internalType":"bool"}],"stateMutability":"view"},{"type":"function","name":"initialize","inputs":[{"name":"_poolAddressesProvider","type":"address","internalType":"contract IPoolAddressesProvider"},{"name":"_wethGateway","type":"address","internalType":"contract IWrappedTokenGatewayV3"},{"name":"_aaveWETH","type":"address","internalType":"contract IERC20"},{"name":"_asp","type":"address","internalType":"contract IASP"},{"name":"_verifier","type":"address","internalType":"contract IVerifier"}],"outputs":[],"stateMutability":"nonpayable"},{"type":"function","name":"isKnownCommitment","inputs":[{"name":"","type":"bytes32","internalType":"bytes32"}],"outputs":[{"name":"","type":"bool","internalType":"bool"}],"stateMutability":"view"},{"type":"function","name":"isUsedNullifier","inputs":[{"name":"","type":"bytes32","internalType":"bytes32"}],"outputs":[{"name":"","type":"bool","internalType":"bool"}],"stateMutability":"view"},{"type":"function","name":"poolAddressesProvider","inputs":[],"outputs":[{"name":"","type":"address","internalType":"contract IPoolAddressesProvider"}],"stateMutability":"view"},{"type":"function","name":"renounceRole","inputs":[{"name":"role","type":"bytes32","internalType":"bytes32"},{"name":"callerConfirmation","type":"address","internalType":"address"}],"outputs":[],"stateMutability":"nonpayable"},{"type":"function","name":"revokeRole","inputs":[{"name":"role","type":"bytes32","internalType":"bytes32"},{"name":"account","type":"address","internalType":"address"}],"outputs":[],"stateMutability":"nonpayable"},{"type":"function","name":"setASP","inputs":[{"name":"_asp","type":"address","internalType":"contract IASP"}],"outputs":[],"stateMutability":"nonpayable"},{"type":"function","name":"setAaveToken","inputs":[{"name":"asset","type":"address","internalType":"address"},{"name":"aToken","type":"address","internalType":"address"}],"outputs":[],"stateMutability":"nonpayable"},{"type":"function","name":"setVerifier","inputs":[{"name":"_verifier","type":"address","internalType":"contract IVerifier"}],"outputs":[],"stateMutability":"nonpayable"},{"type":"function","name":"supportsInterface","inputs":[{"name":"interfaceId","type":"bytes4","internalType":"bytes4"}],"outputs":[{"name":"","type":"bool","internalType":"bool"}],"stateMutability":"view"},{"type":"function","name":"verifier","inputs":[],"outputs":[{"name":"","type":"address","internalType":"contract IVerifier"}],"stateMutability":"view"},{"type":"function","name":"wethGateway","inputs":[],"outputs":[{"name":"","type":"address","internalType":"contract IWrappedTokenGatewayV3"}],"stateMutability":"view"},{"type":"function","name":"withdraw","inputs":[{"name":"asset","type":"address","internalType":"address"},{"name":"recipient","type":"address","internalType":"address"},{"name":"amount","type":"uint256","internalType":"uint256"},{"name":"nullifier","type":"bytes32","internalType":"bytes32"},{"name":"root","type":"bytes32","internalType":"bytes32"},{"name":"subtreeRoot","type":"bytes32","internalType":"bytes32"},{"name":"proof","type":"bytes","internalType":"bytes"},{"name":"subtreeProof","type":"bytes","internalType":"bytes"}],"outputs":[],"stateMutability":"nonpayable"},{"type":"event","name":"Deposit","inputs":[{"name":"depositor","type":"address","indexed":false,"internalType":"address"},{"name":"asset","type":"address","indexed":false,"internalType":"address"},{"name":"amount","type":"uint256","indexed":false,"internalType":"uint256"},{"name":"commitment","type":"bytes32","indexed":false,"internalType":"bytes32"}],"anonymous":false},{"type":"event","name":"Initialized","inputs":[{"name":"version","type":"uint64","indexed":false,"internalType":"uint64"}],"anonymous":false},{"type":"event","name":"RoleAdminChanged","inputs":[{"name":"role","type":"bytes32","indexed":true,"internalType":"bytes32"},{"name":"previousAdminRole","type":"bytes32","indexed":true,"internalType":"bytes32"},{"name":"newAdminRole","type":"bytes32","indexed":true,"internalType":"bytes32"}],"anonymous":false},{"type":"event","name":"RoleGranted","inputs":[{"name":"role","type":"bytes32","indexed":true,"internalType":"bytes32"},{"name":"account","type":"address","indexed":true,"internalType":"address"},{"name":"sender","type":"address","indexed":true,"internalType":"address"}],"anonymous":false},{"type":"event","name":"RoleRevoked","inputs":[{"name":"role","type":"bytes32","indexed":true,"internalType":"bytes32"},{"name":"account","type":"address","indexed":true,"internalType":"address"},{"name":"sender","type":"address","indexed":true,"internalType":"address"}],"anonymous":false},{"type":"event","name":"Withdraw","inputs":[{"name":"recipient","type":"address","indexed":false,"internalType":"address"},{"name":"asset","type":"address","indexed":false,"internalType":"address"},{"name":"amount","type":"uint256","indexed":false,"internalType":"uint256"},{"name":"nullifier","type":"bytes32","indexed":false,"internalType":"bytes32"},{"name":"root","type":"bytes32","indexed":false,"internalType":"bytes32"},{"name":"subtreeRoot","type":"bytes32","indexed":false,"internalType":"bytes32"}],"anonymous":false},{"type":"error","name":"AccessControlBadConfirmation","inputs":[]},{"type":"error","name":"AccessControlUnauthorizedAccount","inputs":[{"name":"account","type":"address","internalType":"address"},{"name":"neededRole","type":"bytes32","internalType":"bytes32"}]},{"type":"error","name":"InsufficientAllowanceOrBalance","inputs":[]},{"type":"error","name":"InsufficientMsgValue","inputs":[]},{"type":"error","name":"InvalidAmount","inputs":[]},{"type":"error","name":"InvalidAsset","inputs":[]},{"type":"error","name":"InvalidCommitment","inputs":[]},{"type":"error","name":"InvalidInitialization","inputs":[]},{"type":"error","name":"InvalidNullifier","inputs":[]},{"type":"error","name":"InvalidProof","inputs":[]},{"type":"error","name":"InvalidRoot","inputs":[]},{"type":"error","name":"NotInitializing","inputs":[]},{"type":"error","name":"ReentrancyGuardReentrantCall","inputs":[]}],"bytecode":{"object":"0x608060405234801561001057600080fd5b5061185e806100206000396000f3fe60806040526004361061014b5760003560e01c806357bcba85116100b6578063a217fddf1161006f578063a217fddf146103c8578063a734f06e146103dd578063c5e10eef14610405578063d159ee4014610425578063d547741f14610455578063f5b541a61461047557600080fd5b806357bcba851461030257806360991b8d14610322578063620f9f4c1461035257806380e17d871461037257806391b9b8271461039257806391d14854146103a857600080fd5b80632f2ff15d116101085780632f2ff15d1461024057806336568abe1461026057806342a8544e146102805780634790e901146102a057806348ccda3c146102c05780635437988d146102e257600080fd5b806301ffc9a7146101505780631459457a146101855780631486a92f146101a7578063248a9ca3146101c757806326b3293f146101f55780632b7ac3f314610208575b600080fd5b34801561015c57600080fd5b5061017061016b366004611439565b610497565b60405190151581526020015b60405180910390f35b34801561019157600080fd5b506101a56101a036600461147f565b6104ce565b005b3480156101b357600080fd5b506101a56101c23660046114f0565b6106c1565b3480156101d357600080fd5b506101e76101e2366004611529565b610708565b60405190815260200161017c565b6101a5610203366004611542565b61072a565b34801561021457600080fd5b50600754610228906001600160a01b031681565b6040516001600160a01b03909116815260200161017c565b34801561024c57600080fd5b506101a561025b366004611577565b6109a0565b34801561026c57600080fd5b506101a561027b366004611577565b6109c2565b34801561028c57600080fd5b506101a561029b36600461159c565b6109f5565b3480156102ac57600080fd5b506101a56102bb366004611602565b610a30565b3480156102cc57600080fd5b506101e76000805160206117a983398151915281565b3480156102ee57600080fd5b506101a56102fd36600461159c565b610e83565b34801561030e57600080fd5b506101e761031d36600461159c565b610ebe565b34801561032e57600080fd5b5061017061033d366004611529565b60036020526000908152604090205460ff1681565b34801561035e57600080fd5b50600654610228906001600160a01b031681565b34801561037e57600080fd5b50600154610228906001600160a01b031681565b34801561039e57600080fd5b506101e760055481565b3480156103b457600080fd5b506101706103c3366004611577565b610f39565b3480156103d457600080fd5b506101e7600081565b3480156103e957600080fd5b5061022873eeeeeeeeeeeeeeeeeeeeeeeeeeeeeeeeeeeeeeee81565b34801561041157600080fd5b50600054610228906001600160a01b031681565b34801561043157600080fd5b50610170610440366004611529565b60046020526000908152604090205460ff1681565b34801561046157600080fd5b506101a5610470366004611577565b610f71565b34801561048157600080fd5b506101e76000805160206117c983398151915281565b60006001600160e01b03198216637965db0b60e01b14806104c857506301ffc9a760e01b6001600160e01b03198316145b92915050565b7ff0c57e16840df040f15088dc2f81fe391c3923bec73e23a9662efc9c229c6a008054600160401b810460ff16159067ffffffffffffffff166000811580156105145750825b905060008267ffffffffffffffff1660011480156105315750303b155b90508115801561053f575080155b1561055d5760405163f92ee8a960e01b815260040160405180910390fd5b845467ffffffffffffffff19166001178555831561058757845460ff60401b1916600160401b1785555b600180546001600160a01b03808d166001600160a01b031992831617909255600080548c8416908316179055600680548a841690831617905560078054928916929091169190911790556105d9610f8d565b6105e1610f9f565b6105ec600033610fa7565b506106056000805160206117c983398151915233610fa7565b506000805160206117a983398151915260055573eeeeeeeeeeeeeeeeeeeeeeeeeeeeeeeeeeeeeeee60005260026020527f6a26712a1b2f732f4c1fd85f9d6ed8235573aaa2a79aa2bab72c2423a73a9faf80546001600160a01b0319166001600160a01b038a1617905583156106b557845460ff60401b19168555604051600181527fc7f505b2f371ae2175ee4913f4499e1f2633a7b5936321eed1cdaeb6115181d29060200160405180910390a15b50505050505050505050565b6000805160206117c98339815191526106d98161104c565b506001600160a01b03918216600090815260026020526040902080546001600160a01b03191691909216179055565b60009081526000805160206117e9833981519152602052604090206001015490565b610732611059565b6001600160a01b03831661075957604051636448d6e960e11b815260040160405180910390fd5b8160000361077a5760405163162908e360e11b815260040160405180910390fd5b60008181526003602052604090205460ff16156107aa57604051636033c4fd60e11b815260040160405180910390fd5b73eeeeeeeeeeeeeeeeeeeeeeeeeeeeeeeeeeeeeeed196001600160a01b038416016107f557813410156107f057604051633c79c7bb60e11b815260040160405180910390fd5b6108f6565b6040516370a0823160e01b815233600482015282906001600160a01b038516906370a0823190602401602060405180830381865afa15801561083b573d6000803e3d6000fd5b505050506040513d601f19601f8201168201806040525081019061085f91906116c1565b10806108d85750604051636eb1769f60e11b815233600482015230602482015282906001600160a01b0385169063dd62ed3e90604401602060405180830381865afa1580156108b2573d6000803e3d6000fd5b505050506040513d601f19601f820116820180604052508101906108d691906116c1565b105b156108f657604051636e2da6bb60e01b815260040160405180910390fd5b6000805160206117a983398151915260055403610917576109178383611091565b600081815260036020908152604091829020805460ff1916600117905581513381526001600160a01b03861691810191909152908101839052606081018290527f76bb911c362d5b1feb3058bc7dc9354703e4b6eb9c61cc845f73da880cf62f619060800160405180910390a161099b600160008051602061180983398151915255565b505050565b6109a982610708565b6109b28161104c565b6109bc8383610fa7565b50505050565b6001600160a01b03811633146109eb5760405163334bd91960e11b815260040160405180910390fd5b61099b828261132b565b6000805160206117c9833981519152610a0d8161104c565b50600680546001600160a01b0319166001600160a01b0392909216919091179055565b610a38611059565b6001600160a01b038a16610a5f57604051636448d6e960e11b815260040160405180910390fd5b87600003610a805760405163162908e360e11b815260040160405180910390fd5b60008781526004602052604090205460ff1615610ab057604051632ec8265960e11b815260040160405180910390fd5b851580610abb575084155b15610ad95760405163504570e360e01b815260040160405180910390fd5b60065460405163f7285da760e01b815260048101889052602481018790526001600160a01b039091169063f7285da790604401602060405180830381865afa158015610b29573d6000803e3d6000fd5b505050506040513d601f19601f82011682018060405250810190610b4d91906116da565b610b6a5760405163504570e360e01b815260040160405180910390fd5b6040805160028082526060820183526000926020830190803683370190505090508781600081518110610b9f57610b9f6116fc565b6020026020010181815250508681600181518110610bbf57610bbf6116fc565b6020908102919091010152600754604051633a94343960e21b81526001600160a01b039091169063ea50d0e490610bfe90889088908690600401611712565b602060405180830381865afa158015610c1b573d6000803e3d6000fd5b505050506040513d601f19601f82011682018060405250810190610c3f91906116da565b610c5c576040516309bde33960e01b815260040160405180910390fd5b6040805160028082526060820183526000926020830190803683370190505090508881600081518110610c9157610c916116fc565b6020026020010181815250508681600181518110610cb157610cb16116fc565b6020908102919091010152600754604051633a94343960e21b81526001600160a01b039091169063ea50d0e490610cf090879087908790600401611712565b602060405180830381865afa158015610d0d573d6000803e3d6000fd5b505050506040513d601f19601f82011682018060405250810190610d3191906116da565b610d4e576040516309bde33960e01b815260040160405180910390fd5b6000805160206117a983398151915260055403610ded576001600160a01b038c81166000908152600260205260409081902054905163a9059cbb60e01b81528d83166004820152602481018d905291169063a9059cbb906044016020604051808303816000875af1158015610dc7573d6000803e3d6000fd5b505050506040513d601f19601f82011682018060405250810190610deb91906116da565b505b600089815260046020908152604091829020805460ff1916600117905581516001600160a01b038e811682528f16918101919091529081018b9052606081018a90526080810189905260a081018890527f1bed33222a9719d297cefbd647a60b8d3e508b93c4f26df444fe9072df89123a9060c00160405180910390a150506106b5600160008051602061180983398151915255565b6000805160206117c9833981519152610e9b8161104c565b50600780546001600160a01b0319166001600160a01b0392909216919091179055565b6001600160a01b038181166000908152600260205260408082205490516370a0823160e01b8152306004820152919216906370a0823190602401602060405180830381865afa158015610f15573d6000803e3d6000fd5b505050506040513d601f19601f820116820180604052508101906104c891906116c1565b60009182526000805160206117e9833981519152602090815260408084206001600160a01b0393909316845291905290205460ff1690565b610f7a82610708565b610f838161104c565b6109bc838361132b565b610f956113a7565b610f9d6113f0565b565b610f9d6113a7565b60006000805160206117e9833981519152610fc28484610f39565b611042576000848152602082815260408083206001600160a01b03871684529091529020805460ff19166001179055610ff83390565b6001600160a01b0316836001600160a01b0316857f2f8788117e7eff1d82e926ec794901d17c78024a50270940304540a733656f0d60405160405180910390a460019150506104c8565b60009150506104c8565b61105681336113f8565b50565b60008051602061180983398151915280546001190161108b57604051633ee5aeb560e01b815260040160405180910390fd5b60029055565b6001600160a01b03828116600090815260026020526040902054166110c957604051636448d6e960e11b815260040160405180910390fd5b6001546040805163026b1d5f60e01b815290516000926001600160a01b03169163026b1d5f9160048083019260209291908290030181865afa158015611113573d6000803e3d6000fd5b505050506040513d601f19601f82011682018060405250810190611137919061178b565b905073eeeeeeeeeeeeeeeeeeeeeeeeeeeeeeeeeeeeeeed196001600160a01b038416016111d2576000805460405163474cf53d60e01b81526001600160a01b038481166004830152306024830152604482019390935291169063474cf53d9084906064016000604051808303818588803b1580156111b457600080fd5b505af11580156111c8573d6000803e3d6000fd5b5050505050505050565b6040516323b872dd60e01b81523360048201523060248201526044810183905283906001600160a01b038216906323b872dd906064016020604051808303816000875af1158015611227573d6000803e3d6000fd5b505050506040513d601f19601f8201168201806040525081019061124b91906116da565b5060405163095ea7b360e01b81526001600160a01b0383811660048301526024820185905282169063095ea7b3906044016020604051808303816000875af115801561129b573d6000803e3d6000fd5b505050506040513d601f19601f820116820180604052508101906112bf91906116da565b5060405163617ba03760e01b81526001600160a01b038581166004830152602482018590523060448301526000606483015283169063617ba03790608401600060405180830381600087803b1580156111b457600080fd5b600160008051602061180983398151915255565b60006000805160206117e98339815191526113468484610f39565b15611042576000848152602082815260408083206001600160a01b0387168085529252808320805460ff1916905551339287917ff6391f5c32d9c69d2a47ea670b442974b53935d1edc7fd64eb21e047a839171b9190a460019150506104c8565b7ff0c57e16840df040f15088dc2f81fe391c3923bec73e23a9662efc9c229c6a0054600160401b900460ff16610f9d57604051631afcd79f60e31b815260040160405180910390fd5b6113176113a7565b6114028282610f39565b6114355760405163e2517d3f60e01b81526001600160a01b03821660048201526024810183905260440160405180910390fd5b5050565b60006020828403121561144b57600080fd5b81356001600160e01b03198116811461146357600080fd5b9392505050565b6001600160a01b038116811461105657600080fd5b600080600080600060a0868803121561149757600080fd5b85356114a28161146a565b945060208601356114b28161146a565b935060408601356114c28161146a565b925060608601356114d28161146a565b915060808601356114e28161146a565b809150509295509295909350565b6000806040838503121561150357600080fd5b823561150e8161146a565b9150602083013561151e8161146a565b809150509250929050565b60006020828403121561153b57600080fd5b5035919050565b60008060006060848603121561155757600080fd5b83356115628161146a565b95602085013595506040909401359392505050565b6000806040838503121561158a57600080fd5b82359150602083013561151e8161146a565b6000602082840312156115ae57600080fd5b81356114638161146a565b60008083601f8401126115cb57600080fd5b50813567ffffffffffffffff8111156115e357600080fd5b6020830191508360208285010111156115fb57600080fd5b9250929050565b6000806000806000806000806000806101008b8d03121561162257600080fd5b8a3561162d8161146a565b995060208b013561163d8161146a565b985060408b0135975060608b0135965060808b0135955060a08b0135945060c08b013567ffffffffffffffff8082111561167657600080fd5b6116828e838f016115b9565b909650945060e08d013591508082111561169b57600080fd5b506116a88d828e016115b9565b915080935050809150509295989b9194979a5092959850565b6000602082840312156116d357600080fd5b5051919050565b6000602082840312156116ec57600080fd5b8151801515811461146357600080fd5b634e487b7160e01b600052603260045260246000fd5b60408152826040820152828460608301376000606084830101526000601f19601f8501168201606081016020606085840301818601528186518084526080850191508288019450600093505b8084101561177e578451825293820193600193909301929082019061175e565b5098975050505050505050565b60006020828403121561179d57600080fd5b81516114638161146a56fede46fbfa339d54cd65b79d8320a7a53c78177565c2aaf4c8b13eed7865e7cfc897667070c54ef182b0f5858b034beac1b6f3089aa2d3188bb1e8929f4fa9b92902dd7bc7dec4dceedda775e58dd541e08a116c6c53815c0bd028192f7b6268009b779b17422d0df92223018b32b4d1fa46e071723d6817e2486d003becc55f00a2646970667358221220a089acd6b29bf1389cbcafd4bc088674d6cffe725814442cfd872fcac77c785c64736f6c63430008140033","linkReferences":{}},"methodIdentifiers":{"AAVE()":"48ccda3c","DEFAULT_ADMIN_ROLE()":"a217fddf","ETH_ADDRESS()":"a734f06e","OPERATOR_ROLE()":"f5b541a6","PROTOCOL()":"91b9b827","asp()":"620f9f4c","deposit(address,uint256,bytes32)":"26b3293f","getAaveTokenBalance(address)":"57bcba85","getRoleAdmin(bytes32)":"248a9ca3","grantRole(bytes32,address)":"2f2ff15d","hasRole(bytes32,address)":"91d14854","initialize(address,address,address,address,address)":"1459457a","isKnownCommitment(bytes32)":"60991b8d","isUsedNullifier(bytes32)":"d159ee40","poolAddressesProvider()":"80e17d87","renounceRole(bytes32,address)":"36568abe","revokeRole(bytes32,address)":"d547741f","setASP(address)":"42a8544e","setAaveToken(address,address)":"1486a92f","setVerifier(address)":"5437988d","supportsInterface(bytes4)":"01ffc9a7","verifier()":"2b7ac3f3","wethGateway()":"c5e10eef","withdraw(address,address,uint256,bytes32,bytes32,bytes32,bytes,bytes)":"4790e901"},"id":1}