{"abi":[{"type":"constructor","inputs":[],"stateMutability":"nonpayable"},{"type":"function","name":"AAVE","inputs":[],"outputs":[{"name":"","type":"bytes32","internalType":"bytes32"}],"stateMutability":"view"},{"type":"function","name":"DEFAULT_ADMIN_ROLE","inputs":[],"outputs":[{"name":"","type":"bytes32","internalType":"bytes32"}],"stateMutability":"view"},{"type":"function","name":"ETH_ADDRESS","inputs":[],"outputs":[{"name":"","type":"address","internalType":"address"}],"stateMutability":"view"},{"type":"function","name":"OPERATOR_ROLE","inputs":[],"outputs":[{"name":"","type":"bytes32","internalType":"bytes32"}],"stateMutability":"view"},{"type":"function","name":"PROTOCOL","inputs":[],"outputs":[{"name":"","type":"bytes32","internalType":"bytes32"}],"stateMutability":"view"},{"type":"function","name":"asp","inputs":[],"outputs":[{"name":"","type":"address","internalType":"contract IASP"}],"stateMutability":"view"},{"type":"function","name":"deposit","inputs":[{"name":"asset","type":"address","internalType":"address"},{"name":"amount","type":"uint256","internalType":"uint256"},{"name":"commitment","type":"bytes32","internalType":"bytes32"}],"outputs":[],"stateMutability":"payable"},{"type":"function","name":"getAaveTokenBalance","inputs":[{"name":"asset","type":"address","internalType":"address"}],"outputs":[{"name":"","type":"uint256","internalType":"uint256"}],"stateMutability":"view"},{"type":"function","name":"getRoleAdmin","inputs":[{"name":"role","type":"bytes32","internalType":"bytes32"}],"outputs":[{"name":"","type":"bytes32","internalType":"bytes32"}],"stateMutability":"view"},{"type":"function","name":"grantRole","inputs":[{"name":"role","type":"bytes32","internalType":"bytes32"},{"name":"account","type":"address","internalType":"address"}],"outputs":[],"stateMutability":"nonpayable"},{"type":"function","name":"hasRole","inputs":[{"name":"role","type":"bytes32","internalType":"bytes32"},{"name":"account","type":"address","internalType":"address"}],"outputs":[{"name":"","type":"bool","internalType":"bool"}],"stateMutability":"view"},{"type":"function","name":"initialize","inputs":[{"name":"_poolAddressesProvider","type":"address","internalType":"contract IPoolAddressesProvider"},{"name":"_wethGateway","type":"address","internalType":"contract IWrappedTokenGatewayV3"},{"name":"_aaveWETH","type":"address","internalType":"contract IERC20"},{"name":"_asp","type":"address","internalType":"contract IASP"},{"name":"_verifier","type":"address","internalType":"contract IVerifier"}],"outputs":[],"stateMutability":"nonpayable"},{"type":"function","name":"isKnownCommitment","inputs":[{"name":"","type":"bytes32","internalType":"bytes32"}],"outputs":[{"name":"","type":"bool","internalType":"bool"}],"stateMutability":"view"},{"type":"function","name":"isUsedNullifier","inputs":[{"name":"","type":"bytes32","internalType":"bytes32"}],"outputs":[{"name":"","type":"bool","internalType":"bool"}],"stateMutability":"view"},{"type":"function","name":"poolAddressesProvider","inputs":[],"outputs":[{"name":"","type":"address","internalType":"contract IPoolAddressesProvider"}],"stateMutability":"view"},{"type":"function","name":"renounceRole","inputs":[{"name":"role","type":"bytes32","internalType":"bytes32"},{"name":"callerConfirmation","type":"address","internalType":"address"}],"outputs":[],"stateMutability":"nonpayable"},{"type":"function","name":"revokeRole","inputs":[{"name":"role","type":"bytes32","internalType":"bytes32"},{"name":"account","type":"address","internalType":"address"}],"outputs":[],"stateMutability":"nonpayable"},{"type":"function","name":"setASP","inputs":[{"name":"_asp","type":"address","internalType":"contract IASP"}],"outputs":[],"stateMutability":"nonpayable"},{"type":"function","name":"setAaveToken","inputs":[{"name":"asset","type":"address","internalType":"address"},{"name":"aToken","type":"address","internalType":"address"}],"outputs":[],"stateMutability":"nonpayable"},{"type":"function","name":"setVerifier","inputs":[{"name":"_verifier","type":"address","internalType":"contract IVerifier"}],"outputs":[],"stateMutability":"nonpayable"},{"type":"function","name":"supportsInterface","inputs":[{"name":"interfaceId","type":"bytes4","internalType":"bytes4"}],"outputs":[{"name":"","type":"bool","internalType":"bool"}],"stateMutability":"view"},{"type":"function","name":"verifier","inputs":[],"outputs":[{"name":"","type":"address","internalType":"contract IVerifier"}],"stateMutability":"view"},{"type":"function","name":"wethGateway","inputs":[],"outputs":[{"name":"","type":"address","internalType":"contract IWrappedTokenGatewayV3"}],"stateMutability":"view"},{"type":"function","name":"withdraw","inputs":[{"name":"asset","type":"address","internalType":"address"},{"name":"recipient","type":"address","internalType":"address"},{"name":"amount","type":"uint256","internalType":"uint256"},{"name":"nullifier","type":"bytes32","internalType":"bytes32"},{"name":"root","type":"bytes32","internalType":"bytes32"},{"name":"subtreeRoot","type":"bytes32","internalType":"bytes32"},{"name":"proof","type":"bytes","internalType":"bytes"},{"name":"subtreeProof","type":"bytes","internalType":"bytes"}],"outputs":[],"stateMutability":"nonpayable"},{"type":"event","name":"Deposit","inputs":[{"name":"depositor","type":"address","indexed":false,"internalType":"address"},{"name":"asset","type":"address","indexed":false,"internalType":"address"},{"name":"amount","type":"uint256","indexed":false,"internalType":"uint256"},{"name":"commitment","type":"bytes32","indexed":false,"internalType":"bytes32"}],"anonymous":false},{"type":"event","name":"Initialized","inputs":[{"name":"version","type":"uint64","indexed":false,"internalType":"uint64"}],"anonymous":false},{"type":"event","name":"RoleAdminChanged","inputs":[{"name":"role","type":"bytes32","indexed":true,"internalType":"bytes32"},{"name":"previousAdminRole","type":"bytes32","indexed":true,"internalType":"bytes32"},{"name":"newAdminRole","type":"bytes32","indexed":true,"internalType":"bytes32"}],"anonymous":false},{"type":"event","name":"RoleGranted","inputs":[{"name":"role","type":"bytes32","indexed":true,"internalType":"bytes32"},{"name":"account","type":"address","indexed":true,"internalType":"address"},{"name":"sender","type":"address","indexed":true,"internalType":"address"}],"anonymous":false},{"type":"event","name":"RoleRevoked","inputs":[{"name":"role","type":"bytes32","indexed":true,"internalType":"bytes32"},{"name":"account","type":"address","indexed":true,"internalType":"address"},{"name":"sender","type":"address","indexed":true,"internalType":"address"}],"anonymous":false},{"type":"event","name":"Withdraw","inputs":[{"name":"recipient","type":"address","indexed":false,"internalType":"address"},{"name":"asset","type":"address","indexed":false,"internalType":"address"},{"name":"amount","type":"uint256","indexed":false,"internalType":"uint256"},{"name":"nullifier","type":"bytes32","indexed":false,"internalType":"bytes32"}],"anonymous":false},{"type":"error","name":"AccessControlBadConfirmation","inputs":[]},{"type":"error","name":"AccessControlUnauthorizedAccount","inputs":[{"name":"account","type":"address","internalType":"address"},{"name":"neededRole","type":"bytes32","internalType":"bytes32"}]},{"type":"error","name":"InsufficientAllowanceOrBalance","inputs":[]},{"type":"error","name":"InsufficientMsgValue","inputs":[]},{"type":"error","name":"InvalidAmount","inputs":[]},{"type":"error","name":"InvalidAsset","inputs":[]},{"type":"error","name":"InvalidCommitment","inputs":[]},{"type":"error","name":"InvalidInitialization","inputs":[]},{"type":"error","name":"InvalidNullifier","inputs":[]},{"type":"error","name":"InvalidProof","inputs":[]},{"type":"error","name":"InvalidRoot","inputs":[]},{"type":"error","name":"NotInitializing","inputs":[]},{"type":"error","name":"ReentrancyGuardReentrantCall","inputs":[]}],"bytecode":{"object":"0x608060405234801561001057600080fd5b506117bf806100206000396000f3fe60806040526004361061014b5760003560e01c806357bcba85116100b6578063a217fddf1161006f578063a217fddf146103c8578063a734f06e146103dd578063c5e10eef14610405578063d159ee4014610425578063d547741f14610455578063f5b541a61461047557600080fd5b806357bcba851461030257806360991b8d14610322578063620f9f4c1461035257806380e17d871461037257806391b9b8271461039257806391d14854146103a857600080fd5b80632f2ff15d116101085780632f2ff15d1461024057806336568abe1461026057806342a8544e146102805780634790e901146102a057806348ccda3c146102c05780635437988d146102e257600080fd5b806301ffc9a7146101505780631459457a146101855780631486a92f146101a7578063248a9ca3146101c757806326b3293f146101f55780632b7ac3f314610208575b600080fd5b34801561015c57600080fd5b5061017061016b36600461139a565b610497565b60405190151581526020015b60405180910390f35b34801561019157600080fd5b506101a56101a03660046113e0565b6104ce565b005b3480156101b357600080fd5b506101a56101c2366004611451565b6106c1565b3480156101d357600080fd5b506101e76101e236600461148a565b610708565b60405190815260200161017c565b6101a56102033660046114a3565b61072a565b34801561021457600080fd5b50600754610228906001600160a01b031681565b6040516001600160a01b03909116815260200161017c565b34801561024c57600080fd5b506101a561025b3660046114d8565b6109a0565b34801561026c57600080fd5b506101a561027b3660046114d8565b6109c2565b34801561028c57600080fd5b506101a561029b3660046114fd565b6109f5565b3480156102ac57600080fd5b506101a56102bb366004611563565b610a30565b3480156102cc57600080fd5b506101e760008051602061170a83398151915281565b3480156102ee57600080fd5b506101a56102fd3660046114fd565b610de4565b34801561030e57600080fd5b506101e761031d3660046114fd565b610e1f565b34801561032e57600080fd5b5061017061033d36600461148a565b60036020526000908152604090205460ff1681565b34801561035e57600080fd5b50600654610228906001600160a01b031681565b34801561037e57600080fd5b50600154610228906001600160a01b031681565b34801561039e57600080fd5b506101e760055481565b3480156103b457600080fd5b506101706103c33660046114d8565b610e9a565b3480156103d457600080fd5b506101e7600081565b3480156103e957600080fd5b5061022873eeeeeeeeeeeeeeeeeeeeeeeeeeeeeeeeeeeeeeee81565b34801561041157600080fd5b50600054610228906001600160a01b031681565b34801561043157600080fd5b5061017061044036600461148a565b60046020526000908152604090205460ff1681565b34801561046157600080fd5b506101a56104703660046114d8565b610ed2565b34801561048157600080fd5b506101e760008051602061172a83398151915281565b60006001600160e01b03198216637965db0b60e01b14806104c857506301ffc9a760e01b6001600160e01b03198316145b92915050565b7ff0c57e16840df040f15088dc2f81fe391c3923bec73e23a9662efc9c229c6a008054600160401b810460ff16159067ffffffffffffffff166000811580156105145750825b905060008267ffffffffffffffff1660011480156105315750303b155b90508115801561053f575080155b1561055d5760405163f92ee8a960e01b815260040160405180910390fd5b845467ffffffffffffffff19166001178555831561058757845460ff60401b1916600160401b1785555b600180546001600160a01b03808d166001600160a01b031992831617909255600080548c8416908316179055600680548a841690831617905560078054928916929091169190911790556105d9610eee565b6105e1610f00565b6105ec600033610f08565b5061060560008051602061172a83398151915233610f08565b5060008051602061170a83398151915260055573eeeeeeeeeeeeeeeeeeeeeeeeeeeeeeeeeeeeeeee60005260026020527f6a26712a1b2f732f4c1fd85f9d6ed8235573aaa2a79aa2bab72c2423a73a9faf80546001600160a01b0319166001600160a01b038a1617905583156106b557845460ff60401b19168555604051600181527fc7f505b2f371ae2175ee4913f4499e1f2633a7b5936321eed1cdaeb6115181d29060200160405180910390a15b50505050505050505050565b60008051602061172a8339815191526106d981610fad565b506001600160a01b03918216600090815260026020526040902080546001600160a01b03191691909216179055565b600090815260008051602061174a833981519152602052604090206001015490565b610732610fba565b6001600160a01b03831661075957604051636448d6e960e11b815260040160405180910390fd5b8160000361077a5760405163162908e360e11b815260040160405180910390fd5b60008181526003602052604090205460ff16156107aa57604051636033c4fd60e11b815260040160405180910390fd5b73eeeeeeeeeeeeeeeeeeeeeeeeeeeeeeeeeeeeeeed196001600160a01b038416016107f557813410156107f057604051633c79c7bb60e11b815260040160405180910390fd5b6108f6565b6040516370a0823160e01b815233600482015282906001600160a01b038516906370a0823190602401602060405180830381865afa15801561083b573d6000803e3d6000fd5b505050506040513d601f19601f8201168201806040525081019061085f9190611622565b10806108d85750604051636eb1769f60e11b815233600482015230602482015282906001600160a01b0385169063dd62ed3e90604401602060405180830381865afa1580156108b2573d6000803e3d6000fd5b505050506040513d601f19601f820116820180604052508101906108d69190611622565b105b156108f657604051636e2da6bb60e01b815260040160405180910390fd5b60008051602061170a83398151915260055403610917576109178383610ff2565b600081815260036020908152604091829020805460ff1916600117905581513381526001600160a01b03861691810191909152908101839052606081018290527f76bb911c362d5b1feb3058bc7dc9354703e4b6eb9c61cc845f73da880cf62f619060800160405180910390a161099b600160008051602061176a83398151915255565b505050565b6109a982610708565b6109b281610fad565b6109bc8383610f08565b50505050565b6001600160a01b03811633146109eb5760405163334bd91960e11b815260040160405180910390fd5b61099b828261128c565b60008051602061172a833981519152610a0d81610fad565b50600680546001600160a01b0319166001600160a01b0392909216919091179055565b610a38610fba565b6001600160a01b038a16610a5f57604051636448d6e960e11b815260040160405180910390fd5b87600003610a805760405163162908e360e11b815260040160405180910390fd5b60008781526004602052604090205460ff1615610ab057604051632ec8265960e11b815260040160405180910390fd5b851580610abb575084155b15610ad95760405163504570e360e01b815260040160405180910390fd5b6040805160028082526060820183526000926020830190803683370190505090508781600081518110610b0e57610b0e61163b565b6020026020010181815250508681600181518110610b2e57610b2e61163b565b6020908102919091010152600754604051633a94343960e21b81526001600160a01b039091169063ea50d0e490610b6d90889088908690600401611651565b602060405180830381865afa158015610b8a573d6000803e3d6000fd5b505050506040513d601f19601f82011682018060405250810190610bae91906116ca565b610bcb576040516309bde33960e01b815260040160405180910390fd5b6040805160028082526060820183526000926020830190803683370190505090508881600081518110610c0057610c0061163b565b6020026020010181815250508681600181518110610c2057610c2061163b565b6020908102919091010152600754604051633a94343960e21b81526001600160a01b039091169063ea50d0e490610c5f90879087908790600401611651565b602060405180830381865afa158015610c7c573d6000803e3d6000fd5b505050506040513d601f19601f82011682018060405250810190610ca091906116ca565b610cbd576040516309bde33960e01b815260040160405180910390fd5b60008051602061170a83398151915260055403610d5c576001600160a01b038c81166000908152600260205260409081902054905163a9059cbb60e01b81528d83166004820152602481018d905291169063a9059cbb906044016020604051808303816000875af1158015610d36573d6000803e3d6000fd5b505050506040513d601f19601f82011682018060405250810190610d5a91906116ca565b505b600089815260046020908152604091829020805460ff1916600117905581516001600160a01b038e811682528f16918101919091529081018b9052606081018a90527f6000e90278b62c00aaaf621956141fad63f2be8860557c31de1f736cafae29169060800160405180910390a150506106b5600160008051602061176a83398151915255565b60008051602061172a833981519152610dfc81610fad565b50600780546001600160a01b0319166001600160a01b0392909216919091179055565b6001600160a01b038181166000908152600260205260408082205490516370a0823160e01b8152306004820152919216906370a0823190602401602060405180830381865afa158015610e76573d6000803e3d6000fd5b505050506040513d601f19601f820116820180604052508101906104c89190611622565b600091825260008051602061174a833981519152602090815260408084206001600160a01b0393909316845291905290205460ff1690565b610edb82610708565b610ee481610fad565b6109bc838361128c565b610ef6611308565b610efe611351565b565b610efe611308565b600060008051602061174a833981519152610f238484610e9a565b610fa3576000848152602082815260408083206001600160a01b03871684529091529020805460ff19166001179055610f593390565b6001600160a01b0316836001600160a01b0316857f2f8788117e7eff1d82e926ec794901d17c78024a50270940304540a733656f0d60405160405180910390a460019150506104c8565b60009150506104c8565b610fb78133611359565b50565b60008051602061176a833981519152805460011901610fec57604051633ee5aeb560e01b815260040160405180910390fd5b60029055565b6001600160a01b038281166000908152600260205260409020541661102a57604051636448d6e960e11b815260040160405180910390fd5b6001546040805163026b1d5f60e01b815290516000926001600160a01b03169163026b1d5f9160048083019260209291908290030181865afa158015611074573d6000803e3d6000fd5b505050506040513d601f19601f8201168201806040525081019061109891906116ec565b905073eeeeeeeeeeeeeeeeeeeeeeeeeeeeeeeeeeeeeeed196001600160a01b03841601611133576000805460405163474cf53d60e01b81526001600160a01b038481166004830152306024830152604482019390935291169063474cf53d9084906064016000604051808303818588803b15801561111557600080fd5b505af1158015611129573d6000803e3d6000fd5b5050505050505050565b6040516323b872dd60e01b81523360048201523060248201526044810183905283906001600160a01b038216906323b872dd906064016020604051808303816000875af1158015611188573d6000803e3d6000fd5b505050506040513d601f19601f820116820180604052508101906111ac91906116ca565b5060405163095ea7b360e01b81526001600160a01b0383811660048301526024820185905282169063095ea7b3906044016020604051808303816000875af11580156111fc573d6000803e3d6000fd5b505050506040513d601f19601f8201168201806040525081019061122091906116ca565b5060405163617ba03760e01b81526001600160a01b038581166004830152602482018590523060448301526000606483015283169063617ba03790608401600060405180830381600087803b15801561111557600080fd5b600160008051602061176a83398151915255565b600060008051602061174a8339815191526112a78484610e9a565b15610fa3576000848152602082815260408083206001600160a01b0387168085529252808320805460ff1916905551339287917ff6391f5c32d9c69d2a47ea670b442974b53935d1edc7fd64eb21e047a839171b9190a460019150506104c8565b7ff0c57e16840df040f15088dc2f81fe391c3923bec73e23a9662efc9c229c6a0054600160401b900460ff16610efe57604051631afcd79f60e31b815260040160405180910390fd5b611278611308565b6113638282610e9a565b6113965760405163e2517d3f60e01b81526001600160a01b03821660048201526024810183905260440160405180910390fd5b5050565b6000602082840312156113ac57600080fd5b81356001600160e01b0319811681146113c457600080fd5b9392505050565b6001600160a01b0381168114610fb757600080fd5b600080600080600060a086880312156113f857600080fd5b8535611403816113cb565b94506020860135611413816113cb565b93506040860135611423816113cb565b92506060860135611433816113cb565b91506080860135611443816113cb565b809150509295509295909350565b6000806040838503121561146457600080fd5b823561146f816113cb565b9150602083013561147f816113cb565b809150509250929050565b60006020828403121561149c57600080fd5b5035919050565b6000806000606084860312156114b857600080fd5b83356114c3816113cb565b95602085013595506040909401359392505050565b600080604083850312156114eb57600080fd5b82359150602083013561147f816113cb565b60006020828403121561150f57600080fd5b81356113c4816113cb565b60008083601f84011261152c57600080fd5b50813567ffffffffffffffff81111561154457600080fd5b60208301915083602082850101111561155c57600080fd5b9250929050565b6000806000806000806000806000806101008b8d03121561158357600080fd5b8a3561158e816113cb565b995060208b013561159e816113cb565b985060408b0135975060608b0135965060808b0135955060a08b0135945060c08b013567ffffffffffffffff808211156115d757600080fd5b6115e38e838f0161151a565b909650945060e08d01359150808211156115fc57600080fd5b506116098d828e0161151a565b915080935050809150509295989b9194979a5092959850565b60006020828403121561163457600080fd5b5051919050565b634e487b7160e01b600052603260045260246000fd5b60408152826040820152828460608301376000606084830101526000601f19601f8501168201606081016020606085840301818601528186518084526080850191508288019450600093505b808410156116bd578451825293820193600193909301929082019061169d565b5098975050505050505050565b6000602082840312156116dc57600080fd5b815180151581146113c457600080fd5b6000602082840312156116fe57600080fd5b81516113c4816113cb56fede46fbfa339d54cd65b79d8320a7a53c78177565c2aaf4c8b13eed7865e7cfc897667070c54ef182b0f5858b034beac1b6f3089aa2d3188bb1e8929f4fa9b92902dd7bc7dec4dceedda775e58dd541e08a116c6c53815c0bd028192f7b6268009b779b17422d0df92223018b32b4d1fa46e071723d6817e2486d003becc55f00a26469706673582212209f0adca2b10c6b1def17ebd225d13773dfd8ba996730431d3d503312850aacee64736f6c63430008140033","linkReferences":{}},"methodIdentifiers":{"AAVE()":"48ccda3c","DEFAULT_ADMIN_ROLE()":"a217fddf","ETH_ADDRESS()":"a734f06e","OPERATOR_ROLE()":"f5b541a6","PROTOCOL()":"91b9b827","asp()":"620f9f4c","deposit(address,uint256,bytes32)":"26b3293f","getAaveTokenBalance(address)":"57bcba85","getRoleAdmin(bytes32)":"248a9ca3","grantRole(bytes32,address)":"2f2ff15d","hasRole(bytes32,address)":"91d14854","initialize(address,address,address,address,address)":"1459457a","isKnownCommitment(bytes32)":"60991b8d","isUsedNullifier(bytes32)":"d159ee40","poolAddressesProvider()":"80e17d87","renounceRole(bytes32,address)":"36568abe","revokeRole(bytes32,address)":"d547741f","setASP(address)":"42a8544e","setAaveToken(address,address)":"1486a92f","setVerifier(address)":"5437988d","supportsInterface(bytes4)":"01ffc9a7","verifier()":"2b7ac3f3","wethGateway()":"c5e10eef","withdraw(address,address,uint256,bytes32,bytes32,bytes32,bytes,bytes)":"4790e901"},"id":1}